{
  "transactions": [
    {
      "hash": "0x22c3f083361e536947caa454790ab73e39d35e8ea85c07466530d2bbda7951e9",
      "transactionType": "CREATE",
      "contractName": "UUPSContractV2",
      "contractAddress": "0xf799c87c2526beea9d45478d9c652f42c887d3c1",
      "function": null,
      "arguments": null,
      "transaction": {
        "from": "0xe3b4ecd2ec88026f84cf17fef8babfd9184c94f0",
        "gas": "0xd123b",
        "value": "0x0",
        "input": "0x60a06040523060805234801561001457600080fd5b50608051610af861003e6000396000818161046b0152818161049401526105da0152610af86000f3fe60806040526004361061009c5760003560e01c80635524107711610064578063552410771461011e578063715018a61461013e5780638da5cb5b14610153578063ad3cb1cc1461019a578063c4d66de8146101d8578063f2fde38b146101f857600080fd5b80633bb2fad9146100a15780633bfd7fd3146100b85780633fa4f245146100cd5780634f1ef286146100f657806352d1902d14610109575b600080fd5b3480156100ad57600080fd5b506100b6610218565b005b3480156100c457600080fd5b506100b6610227565b3480156100d957600080fd5b506100e360005481565b6040519081526020015b60405180910390f35b6100b66101043660046108ff565b610248565b34801561011557600080fd5b506100e3610267565b34801561012a57600080fd5b506100b66101393660046109c1565b610284565b34801561014a57600080fd5b506100b6610291565b34801561015f57600080fd5b507f9016d09d72d40fdae2fd8ceac6b6234c7706214fd39c1cd1e609a0528c199300546040516001600160a01b0390911681526020016100ed565b3480156101a657600080fd5b506101cb604051806040016040528060058152602001640352e302e360dc1b81525081565b6040516100ed91906109fe565b3480156101e457600080fd5b506100b66101f3366004610a31565b6102a5565b34801561020457600080fd5b506100b6610213366004610a31565b6103c2565b610220610405565b6064600055565b61022f610405565b60016000808282546102419190610a4c565b9091555050565b610250610460565b61025982610505565b610263828261050d565b5050565b60006102716105cf565b50600080516020610aa383398151915290565b61028c610405565b600055565b610299610405565b6102a36000610618565b565b7ff0c57e16840df040f15088dc2f81fe391c3923bec73e23a9662efc9c229c6a008054600160401b810460ff16159067ffffffffffffffff166000811580156102eb5750825b905060008267ffffffffffffffff1660011480156103085750303b155b905081158015610316575080155b156103345760405163f92ee8a960e01b815260040160405180910390fd5b845467ffffffffffffffff19166001178555831561035e57845460ff60401b1916600160401b1785555b61036786610689565b61036f61069a565b600a60005583156103ba57845460ff60401b19168555604051600181527fc7f505b2f371ae2175ee4913f4499e1f2633a7b5936321eed1cdaeb6115181d29060200160405180910390a15b505050505050565b6103ca610405565b6001600160a01b0381166103f957604051631e4fbdf760e01b8152600060048201526024015b60405180910390fd5b61040281610618565b50565b336104377f9016d09d72d40fdae2fd8ceac6b6234c7706214fd39c1cd1e609a0528c199300546001600160a01b031690565b6001600160a01b0316146102a35760405163118cdaa760e01b81523360048201526024016103f0565b306001600160a01b037f00000000000000000000000000000000000000000000000000000000000000001614806104e757507f00000000000000000000000000000000000000000000000000000000000000006001600160a01b03166104db600080516020610aa3833981519152546001600160a01b031690565b6001600160a01b031614155b156102a35760405163703e46dd60e11b815260040160405180910390fd5b610402610405565b816001600160a01b03166352d1902d6040518163ffffffff1660e01b8152600401602060405180830381865afa925050508015610567575060408051601f3d908101601f1916820190925261056491810190610a6d565b60015b61058f57604051634c9c8ce360e01b81526001600160a01b03831660048201526024016103f0565b600080516020610aa383398151915281146105c057604051632a87526960e21b8152600481018290526024016103f0565b6105ca83836106a2565b505050565b306001600160a01b037f000000000000000000000000000000000000000000000000000000000000000016146102a35760405163703e46dd60e11b815260040160405180910390fd5b7f9016d09d72d40fdae2fd8ceac6b6234c7706214fd39c1cd1e609a0528c19930080546001600160a01b031981166001600160a01b03848116918217845560405192169182907f8be0079c531659141344cd1fd0a4f28419497f9722a3daafe3b4186f6b6457e090600090a3505050565b6106916106f8565b61040281610741565b6102a36106f8565b6106ab82610749565b6040516001600160a01b038316907fbc7cd75a20ee27fd9adebab32041f755214dbc6bffa90cc0225b39da2e5c2d3b90600090a28051156106f0576105ca82826107ae565b610263610826565b7ff0c57e16840df040f15088dc2f81fe391c3923bec73e23a9662efc9c229c6a0054600160401b900460ff166102a357604051631afcd79f60e31b815260040160405180910390fd5b6103ca6106f8565b806001600160a01b03163b60000361077f57604051634c9c8ce360e01b81526001600160a01b03821660048201526024016103f0565b600080516020610aa383398151915280546001600160a01b0319166001600160a01b0392909216919091179055565b6060600080846001600160a01b0316846040516107cb9190610a86565b600060405180830381855af49150503d8060008114610806576040519150601f19603f3d011682016040523d82523d6000602084013e61080b565b606091505b509150915061081b858383610845565b925050505b92915050565b34156102a35760405163b398979f60e01b815260040160405180910390fd5b60608261085a57610855826108a4565b61089d565b815115801561087157506001600160a01b0384163b155b1561089a57604051639996b31560e01b81526001600160a01b03851660048201526024016103f0565b50805b9392505050565b8051156108b45780518082602001fd5b604051630a12f52160e11b815260040160405180910390fd5b80356001600160a01b03811681146108e457600080fd5b919050565b634e487b7160e01b600052604160045260246000fd5b6000806040838503121561091257600080fd5b61091b836108cd565b9150602083013567ffffffffffffffff8082111561093857600080fd5b818501915085601f83011261094c57600080fd5b81358181111561095e5761095e6108e9565b604051601f8201601f19908116603f01168101908382118183101715610986576109866108e9565b8160405282815288602084870101111561099f57600080fd5b8260208601602083013760006020848301015280955050505050509250929050565b6000602082840312156109d357600080fd5b5035919050565b60005b838110156109f55781810151838201526020016109dd565b50506000910152565b6020815260008251806020840152610a1d8160408501602087016109da565b601f01601f19169190910160400192915050565b600060208284031215610a4357600080fd5b61089d826108cd565b8082018082111561082057634e487b7160e01b600052601160045260246000fd5b600060208284031215610a7f57600080fd5b5051919050565b60008251610a988184602087016109da565b919091019291505056fe360894a13ba1a3210667c828492db98dca3e2076cc3735a920a3ca505d382bbca26469706673582212206c26a45a7ca94711df5c4224b25dce930c9fad24e20ed9b84e8f296eab11e64964736f6c63430008140033",
        "nonce": "0x42",
        "chainId": "0x4268"
      },
      "additionalContracts": [],
      "isFixedGasLimit": false
    },
    {
      "hash": "0x45ee70785b047b4e60be6f59f2ae0f1304f313548125ecb0f7f417050b45d1d0",
      "transactionType": "CALL",
      "contractName": null,
      "contractAddress": "0xed63674ebaed5d5fe567b41bab2ac16e2f9c1386",
      "function": "UPGRADE_INTERFACE_VERSION()",
      "arguments": [],
      "transaction": {
        "from": "0xe3b4ecd2ec88026f84cf17fef8babfd9184c94f0",
        "to": "0xed63674ebaed5d5fe567b41bab2ac16e2f9c1386",
        "gas": "0x8f00",
        "value": "0x0",
        "input": "0xad3cb1cc",
        "nonce": "0x43",
        "chainId": "0x4268"
      },
      "additionalContracts": [],
      "isFixedGasLimit": false
    },
    {
      "hash": "0x1d41b2e04e2d19c8d7471e8ff2fbfbc7a8d9efd66ca1789976cc354cc823bce6",
      "transactionType": "CALL",
      "contractName": null,
      "contractAddress": "0xed63674ebaed5d5fe567b41bab2ac16e2f9c1386",
      "function": "upgradeToAndCall(address,bytes)",
      "arguments": [
        "0xF799C87C2526BeeA9D45478d9c652f42c887D3C1",
        "0x"
      ],
      "transaction": {
        "from": "0xe3b4ecd2ec88026f84cf17fef8babfd9184c94f0",
        "to": "0xed63674ebaed5d5fe567b41bab2ac16e2f9c1386",
        "gas": "0xcb1e",
        "value": "0x0",
        "input": "0x4f1ef286000000000000000000000000f799c87c2526beea9d45478d9c652f42c887d3c100000000000000000000000000000000000000000000000000000000000000400000000000000000000000000000000000000000000000000000000000000000",
        "nonce": "0x44",
        "chainId": "0x4268"
      },
      "additionalContracts": [],
      "isFixedGasLimit": false
    },
    {
      "hash": "0xf13233573056c5cc4e51d3fa3cd200f30d198de247967ede8dfa92344d233665",
      "transactionType": "CALL",
      "contractName": null,
      "contractAddress": "0xed63674ebaed5d5fe567b41bab2ac16e2f9c1386",
      "function": "incrementValue()",
      "arguments": [],
      "transaction": {
        "from": "0xe3b4ecd2ec88026f84cf17fef8babfd9184c94f0",
        "to": "0xed63674ebaed5d5fe567b41bab2ac16e2f9c1386",
        "gas": "0x12095",
        "value": "0x0",
        "input": "0x3bfd7fd3",
        "nonce": "0x45",
        "chainId": "0x4268"
      },
      "additionalContracts": [],
      "isFixedGasLimit": false
    }
  ],
  "receipts": [
    {
      "status": "0x1",
      "cumulativeGasUsed": "0x446422",
      "logs": [],
      "logsBloom": "0x00000000000000000000000000000000000000000000000000000000000000000000000000000000000000000000000000000000000000000000000000000000000000000000000000000000000000000000000000000000000000000000000000000000000000000000000000000000000000000000000000000000000000000000000000000000000000000000000000000000000000000000000000000000000000000000000000000000000000000000000000000000000000000000000000000000000000000000000000000000000000000000000000000000000000000000000000000000000000000000000000000000000000000000000000000000",
      "type": "0x2",
      "transactionHash": "0x22c3f083361e536947caa454790ab73e39d35e8ea85c07466530d2bbda7951e9",
      "transactionIndex": "0xe",
      "blockHash": "0xa4dfee923d674d7a8c67f5e672ba9e5dae69903843e8c09d6d0fd53d89709907",
      "blockNumber": "0x1f87af",
      "gasUsed": "0xa0eba",
      "effectiveGasPrice": "0x1fc85b",
      "from": "0xe3b4ecd2ec88026f84cf17fef8babfd9184c94f0",
      "to": null,
      "contractAddress": "0xf799c87c2526beea9d45478d9c652f42c887d3c1"
    },
    {
      "status": "0x1",
      "cumulativeGasUsed": "0x44cbaa",
      "logs": [],
      "logsBloom": "0x00000000000000000000000000000000000000000000000000000000000000000000000000000000000000000000000000000000000000000000000000000000000000000000000000000000000000000000000000000000000000000000000000000000000000000000000000000000000000000000000000000000000000000000000000000000000000000000000000000000000000000000000000000000000000000000000000000000000000000000000000000000000000000000000000000000000000000000000000000000000000000000000000000000000000000000000000000000000000000000000000000000000000000000000000000000",
      "type": "0x2",
      "transactionHash": "0x45ee70785b047b4e60be6f59f2ae0f1304f313548125ecb0f7f417050b45d1d0",
      "transactionIndex": "0xf",
      "blockHash": "0xa4dfee923d674d7a8c67f5e672ba9e5dae69903843e8c09d6d0fd53d89709907",
      "blockNumber": "0x1f87af",
      "gasUsed": "0x6788",
      "effectiveGasPrice": "0x1fc85b",
      "from": "0xe3b4ecd2ec88026f84cf17fef8babfd9184c94f0",
      "to": "0xed63674ebaed5d5fe567b41bab2ac16e2f9c1386",
      "contractAddress": null
    },
    {
      "status": "0x1",
      "cumulativeGasUsed": "0x455eb9",
      "logs": [
        {
          "address": "0xed63674ebaed5d5fe567b41bab2ac16e2f9c1386",
          "topics": [
            "0xbc7cd75a20ee27fd9adebab32041f755214dbc6bffa90cc0225b39da2e5c2d3b",
            "0x000000000000000000000000f799c87c2526beea9d45478d9c652f42c887d3c1"
          ],
          "data": "0x",
          "blockHash": "0xa4dfee923d674d7a8c67f5e672ba9e5dae69903843e8c09d6d0fd53d89709907",
          "blockNumber": "0x1f87af",
          "transactionHash": "0x1d41b2e04e2d19c8d7471e8ff2fbfbc7a8d9efd66ca1789976cc354cc823bce6",
          "transactionIndex": "0x10",
          "logIndex": "0x17",
          "removed": false
        }
      ],
      "logsBloom": "0x00000010000000000000000000000000400000000000000000000000000000000000000000000000000000000040000000800000000000000000000000000000000000000000000000000000000002000000000000000000000000000000000000000000000000000000000000004000000000000000000000000000000000000000000000000000000000000000000000000000000000000000000000000000000000000000000010000000000000000000000000000000000000000000000000000020000000000000000000000000000000000000000000000000000000000000000000000000000000000000000000000002000000000000000000000000",
      "type": "0x2",
      "transactionHash": "0x1d41b2e04e2d19c8d7471e8ff2fbfbc7a8d9efd66ca1789976cc354cc823bce6",
      "transactionIndex": "0x10",
      "blockHash": "0xa4dfee923d674d7a8c67f5e672ba9e5dae69903843e8c09d6d0fd53d89709907",
      "blockNumber": "0x1f87af",
      "gasUsed": "0x930f",
      "effectiveGasPrice": "0x1fc85b",
      "from": "0xe3b4ecd2ec88026f84cf17fef8babfd9184c94f0",
      "to": "0xed63674ebaed5d5fe567b41bab2ac16e2f9c1386",
      "contractAddress": null
    },
    {
      "status": "0x1",
      "cumulativeGasUsed": "0x46240c",
      "logs": [],
      "logsBloom": "0x00000000000000000000000000000000000000000000000000000000000000000000000000000000000000000000000000000000000000000000000000000000000000000000000000000000000000000000000000000000000000000000000000000000000000000000000000000000000000000000000000000000000000000000000000000000000000000000000000000000000000000000000000000000000000000000000000000000000000000000000000000000000000000000000000000000000000000000000000000000000000000000000000000000000000000000000000000000000000000000000000000000000000000000000000000000",
      "type": "0x2",
      "transactionHash": "0xf13233573056c5cc4e51d3fa3cd200f30d198de247967ede8dfa92344d233665",
      "transactionIndex": "0x11",
      "blockHash": "0xa4dfee923d674d7a8c67f5e672ba9e5dae69903843e8c09d6d0fd53d89709907",
      "blockNumber": "0x1f87af",
      "gasUsed": "0xc553",
      "effectiveGasPrice": "0x1fc85b",
      "from": "0xe3b4ecd2ec88026f84cf17fef8babfd9184c94f0",
      "to": "0xed63674ebaed5d5fe567b41bab2ac16e2f9c1386",
      "contractAddress": null
    }
  ],
  "libraries": [],
  "pending": [],
  "returns": {},
  "timestamp": 1722781363,
  "chain": 17000,
  "commit": "b959e4a"
}