{
  "transactions": [
    {
      "hash": "0xdbf5e9a28b02812efb8cb2c85ac5e5d0a923b8c9673df99a26f472a936ffc47c",
      "transactionType": "CREATE",
      "contractName": "Create2Deployer",
      "contractAddress": "0x255e16a24a76ef6f1f18472beb3f49035f63d75c",
      "function": null,
      "arguments": null,
      "transaction": {
        "from": "0xe2794a77096e58297aed14eec434a72ecd6353a8",
        "gas": "0x5493a",
        "value": "0x0",
        "input": "0x6080604052348015600f57600080fd5b506103dc8061001f6000396000f3fe608060405234801561001057600080fd5b50600436106100365760003560e01c806324b82c9d1461003b578063f79b99e91461006a575b600080fd5b61004e6100493660046101e7565b61007d565b6040516001600160a01b03909116815260200160405180910390f35b61004e6100783660046101e7565b610149565b60008060405180602001610090906101da565b6020820181038252601f19601f820116604052509050600081846040516020016100bc91815260200190565b60408051601f19818403018152908290526100da9291602001610239565b60408051808303601f1901815282825280516020918201206001600160f81b0319828501523060601b6bffffffffffffffffffffffff19166021850152603584019890985260558084019890985281518084039098018852607590920190528551950194909420949350505050565b60008060006040518060200161015e906101da565b6020820181038252601f19601f8201166040525090506000818560405160200161018a91815260200190565b60408051601f19818403018152908290526101a89291602001610239565b6040516020818303038152906040529050858151602083016000f59250823b6101d057600080fd5b5090949350505050565b6101508061025783390190565b600080604083850312156101fa57600080fd5b50508035926020909101359150565b6000815160005b8181101561022a5760208185018101518683015201610210565b50600093019283525090919050565b600061024e6102488386610209565b84610209565b94935050505056fe6080604052348015600f57600080fd5b50604051610150380380610150833981016040819052602c916033565b600055604b565b600060208284031215604457600080fd5b5051919050565b60f7806100596000396000f3fe6080604052348015600f57600080fd5b5060043610603c5760003560e01c80633fb5c1cb1460415780638381f58a146053578063d09de08a14606d575b600080fd5b6051604c3660046083565b600055565b005b605b60005481565b60405190815260200160405180910390f35b6051600080549080607c83609b565b9190505550565b600060208284031215609457600080fd5b5035919050565b60006001820160ba57634e487b7160e01b600052601160045260246000fd5b506001019056fea26469706673582212209598a7aadb849e71e5dd6c885a15085e57a0c7a653ed27f9f251d9dce42437d564736f6c63430008190033a2646970667358221220f13237528fdee33d8a6f5b3415e540df66e4882052862089e624769efc3cbe3a64736f6c63430008190033",
        "nonce": "0x1",
        "chainId": "0x4268"
      },
      "additionalContracts": [],
      "isFixedGasLimit": false
    },
    {
      "hash": "0x6b1486cc9c48817be8c3f7663079c7c8dd7d474d24759096a51fda042975d569",
      "transactionType": "CREATE",
      "contractName": "Create2Deployer",
      "contractAddress": "0xe5cd2938a75795f6ccb2f1a4d69ef16cedb4ecd5",
      "function": null,
      "arguments": null,
      "transaction": {
        "from": "0xe2794a77096e58297aed14eec434a72ecd6353a8",
        "gas": "0x5493a",
        "value": "0x0",
        "input": "0x6080604052348015600f57600080fd5b506103dc8061001f6000396000f3fe608060405234801561001057600080fd5b50600436106100365760003560e01c806324b82c9d1461003b578063f79b99e91461006a575b600080fd5b61004e6100493660046101e7565b61007d565b6040516001600160a01b03909116815260200160405180910390f35b61004e6100783660046101e7565b610149565b60008060405180602001610090906101da565b6020820181038252601f19601f820116604052509050600081846040516020016100bc91815260200190565b60408051601f19818403018152908290526100da9291602001610239565b60408051808303601f1901815282825280516020918201206001600160f81b0319828501523060601b6bffffffffffffffffffffffff19166021850152603584019890985260558084019890985281518084039098018852607590920190528551950194909420949350505050565b60008060006040518060200161015e906101da565b6020820181038252601f19601f8201166040525090506000818560405160200161018a91815260200190565b60408051601f19818403018152908290526101a89291602001610239565b6040516020818303038152906040529050858151602083016000f59250823b6101d057600080fd5b5090949350505050565b6101508061025783390190565b600080604083850312156101fa57600080fd5b50508035926020909101359150565b6000815160005b8181101561022a5760208185018101518683015201610210565b50600093019283525090919050565b600061024e6102488386610209565b84610209565b94935050505056fe6080604052348015600f57600080fd5b50604051610150380380610150833981016040819052602c916033565b600055604b565b600060208284031215604457600080fd5b5051919050565b60f7806100596000396000f3fe6080604052348015600f57600080fd5b5060043610603c5760003560e01c80633fb5c1cb1460415780638381f58a146053578063d09de08a14606d575b600080fd5b6051604c3660046083565b600055565b005b605b60005481565b60405190815260200160405180910390f35b6051600080549080607c83609b565b9190505550565b600060208284031215609457600080fd5b5035919050565b60006001820160ba57634e487b7160e01b600052601160045260246000fd5b506001019056fea26469706673582212209598a7aadb849e71e5dd6c885a15085e57a0c7a653ed27f9f251d9dce42437d564736f6c63430008190033a2646970667358221220f13237528fdee33d8a6f5b3415e540df66e4882052862089e624769efc3cbe3a64736f6c63430008190033",
        "nonce": "0x2",
        "chainId": "0x4268"
      },
      "additionalContracts": [],
      "isFixedGasLimit": false
    },
    {
      "hash": "0xc218550c10df0e09a3bde924998ce4f22200f48446c46950e40336435449cab9",
      "transactionType": "CALL",
      "contractName": "Create2Deployer",
      "contractAddress": "0xe5cd2938a75795f6ccb2f1a4d69ef16cedb4ecd5",
      "function": "deploy(bytes32,uint256)",
      "arguments": [
        "0xe856d52c1bb87ef4e37d85528bead6572c2da0c0c62a66fddc8d4805cb3d1f03",
        "123"
      ],
      "transaction": {
        "from": "0xe2794a77096e58297aed14eec434a72ecd6353a8",
        "to": "0xe5cd2938a75795f6ccb2f1a4d69ef16cedb4ecd5",
        "gas": "0x2aff0",
        "value": "0x0",
        "input": "0xf79b99e9e856d52c1bb87ef4e37d85528bead6572c2da0c0c62a66fddc8d4805cb3d1f03000000000000000000000000000000000000000000000000000000000000007b",
        "nonce": "0x3",
        "chainId": "0x4268"
      },
      "additionalContracts": [
        {
          "transactionType": "CREATE2",
          "address": "0x0f1bbebf7cdb451d9ed8893dccb41f71b05974e0",
          "initCode": "0x6080604052348015600f57600080fd5b50604051610150380380610150833981016040819052602c916033565b600055604b565b600060208284031215604457600080fd5b5051919050565b60f7806100596000396000f3fe6080604052348015600f57600080fd5b5060043610603c5760003560e01c80633fb5c1cb1460415780638381f58a146053578063d09de08a14606d575b600080fd5b6051604c3660046083565b600055565b005b605b60005481565b60405190815260200160405180910390f35b6051600080549080607c83609b565b9190505550565b600060208284031215609457600080fd5b5035919050565b60006001820160ba57634e487b7160e01b600052601160045260246000fd5b506001019056fea26469706673582212209598a7aadb849e71e5dd6c885a15085e57a0c7a653ed27f9f251d9dce42437d564736f6c63430008190033000000000000000000000000000000000000000000000000000000000000007b"
        }
      ],
      "isFixedGasLimit": false
    }
  ],
  "receipts": [
    {
      "status": "0x1",
      "cumulativeGasUsed": "0x636f95",
      "logs": [],
      "logsBloom": "0x00000000000000000000000000000000000000000000000000000000000000000000000000000000000000000000000000000000000000000000000000000000000000000000000000000000000000000000000000000000000000000000000000000000000000000000000000000000000000000000000000000000000000000000000000000000000000000000000000000000000000000000000000000000000000000000000000000000000000000000000000000000000000000000000000000000000000000000000000000000000000000000000000000000000000000000000000000000000000000000000000000000000000000000000000000000",
      "type": "0x2",
      "transactionHash": "0xdbf5e9a28b02812efb8cb2c85ac5e5d0a923b8c9673df99a26f472a936ffc47c",
      "transactionIndex": "0xf",
      "blockHash": "0x8cb6967956225a125081199342584c17855283976f2f4c8c6eb6b5ec3756f394",
      "blockNumber": "0x2b9180",
      "gasUsed": "0x41132",
      "effectiveGasPrice": "0x28f7ff9",
      "from": "0xe2794a77096e58297aed14eec434a72ecd6353a8",
      "to": null,
      "contractAddress": "0x255e16a24a76ef6f1f18472beb3f49035f63d75c"
    },
    {
      "status": "0x1",
      "cumulativeGasUsed": "0x6780c7",
      "logs": [],
      "logsBloom": "0x00000000000000000000000000000000000000000000000000000000000000000000000000000000000000000000000000000000000000000000000000000000000000000000000000000000000000000000000000000000000000000000000000000000000000000000000000000000000000000000000000000000000000000000000000000000000000000000000000000000000000000000000000000000000000000000000000000000000000000000000000000000000000000000000000000000000000000000000000000000000000000000000000000000000000000000000000000000000000000000000000000000000000000000000000000000",
      "type": "0x2",
      "transactionHash": "0x6b1486cc9c48817be8c3f7663079c7c8dd7d474d24759096a51fda042975d569",
      "transactionIndex": "0x10",
      "blockHash": "0x8cb6967956225a125081199342584c17855283976f2f4c8c6eb6b5ec3756f394",
      "blockNumber": "0x2b9180",
      "gasUsed": "0x41132",
      "effectiveGasPrice": "0x28f7ff9",
      "from": "0xe2794a77096e58297aed14eec434a72ecd6353a8",
      "to": null,
      "contractAddress": "0xe5cd2938a75795f6ccb2f1a4d69ef16cedb4ecd5"
    },
    {
      "status": "0x1",
      "cumulativeGasUsed": "0x711286",
      "logs": [],
      "logsBloom": "0x00000000000000000000000000000000000000000000000000000000000000000000000000000000000000000000000000000000000000000000000000000000000000000000000000000000000000000000000000000000000000000000000000000000000000000000000000000000000000000000000000000000000000000000000000000000000000000000000000000000000000000000000000000000000000000000000000000000000000000000000000000000000000000000000000000000000000000000000000000000000000000000000000000000000000000000000000000000000000000000000000000000000000000000000000000000",
      "type": "0x2",
      "transactionHash": "0xc218550c10df0e09a3bde924998ce4f22200f48446c46950e40336435449cab9",
      "transactionIndex": "0x14",
      "blockHash": "0x8cb6967956225a125081199342584c17855283976f2f4c8c6eb6b5ec3756f394",
      "blockNumber": "0x2b9180",
      "gasUsed": "0x1f227",
      "effectiveGasPrice": "0x28f7ff9",
      "from": "0xe2794a77096e58297aed14eec434a72ecd6353a8",
      "to": "0xe5cd2938a75795f6ccb2f1a4d69ef16cedb4ecd5",
      "contractAddress": null
    }
  ],
  "libraries": [],
  "pending": [],
  "returns": {},
  "timestamp": 1733126524,
  "chain": 17000,
  "commit": "30e2a07"
}